S011000042696B654C696768742E73726563A0
S113000010C01FC01EC01DC01CC01BC01AC019C018
S113001018C03FC016C015C061C013C012C011C0C3
S113002010C011241FBECFE5D1E0DEBFCDBF20E05C
S1130030A0E6B0E001C01D92A436B207E1F758D0A3
S113004059C0DECFD39ADC9AC29A379A17B83F9A2E
S113005086B1836086B9089A8AB380668ABB8FB5F5
S1130060826A8FBD8EB589618EBD88EE93E095BDA1
S113007084BD80B7826080BF83B7826083BF8DE711
S113008086BF89B7826089BF88B18B6488B9789448
S113009008951F920F920FB60F9211248F939F937E
S11300A0AF93BF938091600090916100A091620032
S11300B0B09163000196A11DB11D809360009093DF
S11300C06100A0936200B0936300BF91AF919F91D0
S11300D08F910F900FBE0F901F9018951F920F9243
S11300E00FB60F9211240F900FBE0F901F9018950A
S10B00F0A9DFFFCFF894FFCF54
S9030000FC
