:1000000010C02AC029C028C027C026C025C024C0CF
:1000100023C0A4C021C020C0D8C01EC01DC01CC0A9
:100020001BC011241FBECFE5D1E0DEBFCDBF10E065
:10003000A0E6B0E0E6E0F2E002C005900D92A23644
:10004000B107D9F720E0A2E6B0E001C01D92AA36C0
:10005000B207E1F7C4D0D5C0D3CFD39ADC9AC29A05
:10006000379A17B83F9A86B1836086B9089A8AB3DF
:1000700080668ABB8FB582608FBD8EB589618EBD6B
:1000800088EE93E095BD84BD80B7826080BF83B762
:10009000826083BF8DE786BF89B7826089BF88B1E0
:1000A0008B6488B97894089520916100213091F48F
:1000B00020916400309165006217730728F02FB516
:1000C0002F772FBDDD9806C0109261001092650059
:1000D0001092640020916100211112C020916400EF
:1000E000309165008217930720F08FB580688FBD2F
:1000F000089581E080936100109265001092640081
:10010000089520916000213091F420916200309197
:1001100063006217730728F02FB52F7D2FBDDE987F
:1001200006C010926000109263001092620020914D
:100130006000211112C0209162003091630082178B
:10014000930720F08FB580628FBD089581E0809382
:100150006000109263001092620008951F920F9247
:100160000FB60F9211248F939F93AF93BF938091FB
:10017000660090916700A0916800B09169000196B7
:10018000A11DB11D8093660090936700A093680045
:10019000B0936900809164009091650001969093FE
:1001A00065008093640080916200909163000196E5
:1001B0009093630080936200BF91AF919F918F9164
:1001C0000F900FBE0F901F9018951F920F920FB6B1
:1001D0000F9211240F900FBE0F901F9018953DDFC6
:1001E00088EE93E09BBD8ABD99BD88BD68EE73E043
:1001F00084EF91E059DF64EF71E088EE93E081DFF6
:06020000F5CFF894FFCFDA
:020206000101F4
:00000001FF
