S011000042696B654C696768742E73726563A0
S113000010C071C029C028C027C026C025C024C084
S113001023C0F3C021C020C039C11EC01DC01CC0F4
S11300201BC011241FBECFE5D1E0DEBFCDBF10E061
S1130030A0E6B0E0E0E1F7E002C005900D92A6363C
S1130040B107D9F720E0A6E6B0E001C01D92AA38B6
S1130050B207E1F734D35AC3D3CFB89AC19AC29A3C
S11300608AB388698ABB8BB387768BBB379A17B8F8
S11300703F9A86B1836086B9089A8AB380668ABB40
S11300808FB582608FBD8EB589618EBD88EE93E099
S113009095BD84BD80B7826080BF83B7826083BF13
S11300A08DE786BF89B7826089BF88B18B6488B9C0
S11300B0C09A78940895893623E0920718F4DB9A5D
S11300C0DC98DF989C01295633402A34310520F40A
S11300D02BB328612BBBDF98833B934018F08BB381
S11300E088698BBB08951F920F920FB60F9211244B
S11300F02F933F934F935F936F937F938F939F932C
S1130100AF93BF93EF93FF938BB78F7B8BBF85B771
S11301108F7D85BFA2DF10B8379A4798FF91EF9182
S1130120BF91AF919F918F917F916F915F914F910B
S11301303F912F910F900FBE0F901F9018959C0127
S113014090916500913099F48091820090918300A0
S11301506817790728F08FB58F778FBDDD9807C0B2
S113016010926500109283001092820004C0909156
S11301706500911112C0809182009091830028172C
S1130180390720F08FB580688FBD089581E0809392
S11301906500109283001092820008959C01909152
S11301A06400913099F480918000909181006817E7
S11301B0790728F08FB58F7D8FBDDE9807C0109228
S11301C06400109281001092800004C09091640039
S11301D0911112C0809180009091810028173907F5
S11301E020F08FB580628FBD089581E08093640014
S11301F0109281001092800008951F920F920FB602
S11302000F9211248F939F93AF93BF938091840097
S113021090918500A0918600B09187000196A11D60
S1130220B11D8093840090938500A0938600B093C1
S113023087008091820090918300019690938300BF
S11302408093820080918000909181000196909328
S113025081008093800080917E0090917F000196C0
S113026090937F0080937E0080917C0090917D002C
S1130270019690937D0080937C00BF91AF919F91F4
S11302808F910F900FBE0F901F9018951F920F9291
S11302900FB60F9211248F9310927D0010927C0060
S11302A08FB580688FBD8F910F900FBE0F901F90F8
S11302B01895883E23E0920710F088EE93E09BBDEA
S11302C08ABD0895883E23E0920710F088EE93E0FB
S11302D099BD88BD0895369A3699FECF84B195B1FB
S11302E00895B29970C080917900811113C081E0A2
S11302F0809379008091840090918500A09186007C
S1130300B09187008093750090937600A093770056
S1130310B093780080917400811103C081E08093D0
S113032074008091840090918500A0918600B09122
S1130330870040917500509176006091770070912C
S11303407800841B950BA60BB70B883E9340A10540
S1130350B105C8F1809172009091730001968333C6
S1130360910528F490937300809372002CC010922E
S1130370730010927200809171008111A0C080916D
S1130380620090916300883E23E0920730F4019666
S1130390909363008093620006C088EE93E090938C
S11303A0630080936200809162009091630081DF1A
S11303B00AC0019790936300809362008091620069
S11303C09091630076DF80917900813009F07FC0DD
S11303D0B29B7DC08091840090918500A09186009D
S11303E0B09187004091750050917600609177003C
S11303F070917800841B950BA60BB70B883E934035
S1130400A105B10548F0109279009091710081E046
S113041089278093710047C0809184009091850062
S1130420A0918600B0918700841B950BA60BB70B97
S1130430C297A105B105B8F180918400909185001F
S1130440A0918600B0918700841B950BA60BB70B77
S1130450843F9140A105B105D8F010927900109223
S1130460700080917B00882329F08FB58F778FBD32
S1130470DD980BC00FB407FC04C08FB580688FBD36
S113048004C08FB58F778FBDDD9810927B000BC0B1
S113049080917400813039F4809170008F5F809373
S11304A070001092740080917000823080F010927D
S11304B079001092700081E080937B000895809110
S11304C0620090916300009709F073CF77CF08958D
S11304D0B19970C080916F00811113C081E0809345
S11304E06F008091840090918500A0918600B09166
S11304F0870080936B0090936C00A0936D00B09381
S11305006E0080916A00811103C081E080936A00CB
S11305108091840090918500A0918600B09187001D
S113052040916B0050916C0060916D0070916E0071
S1130530841B950BA60BB70B883E9340A105B10510
S1130540C8F1809168009091690001968333910508
S113055028F490936900809368002CC0109269007D
S113056010926800809167008111A0C080916000A2
S113057090916100883E23E0920730F401969093B5
S113058061008093600006C088EE93E09093610060
S113059080936000809160009091610093DE0AC0B6
S11305A00197909361008093600080916000909126
S11305B0610088DE80916F00813009F07FC0B19BBB
S11305C07DC08091840090918500A0918600B091B7
S11305D0870040916B0050916C0060916D007091A8
S11305E06E00841B950BA60BB70B883E9340A105A8
S11305F0B10548F010926F009091670081E089275F
S11306008093670047C08091840090918500A091F9
S11306108600B0918700841B950BA60BB70BC2977D
S1130620A105B105B8F18091840090918500A09155
S11306308600B0918700841B950BA60BB70B843FF3
S11306409140A105B105D8F010926F001092660098
S113065080917A00882329F08FB58F7D8FBDDE9835
S11306600BC00FB405FC04C08FB580628FBD04C0FD
S11306708FB58F7D8FBDDE9810927A000BC080916C
S11306806A00813039F4809166008F5F8093660040
S113069010926A0080916600823080F010926F00A0
S11306A01092660081E080937A0008958091600042
S11306B090916100009709F073CF77CF0895CDDC56
S11306C080917E0090917F00883B9B4050F003DE38
S11306D0909389008093880010927F0010927E008E
S11306E0EADCFFDDF5DE80917B00882329F06CE2F3
S11306F071E082E390E023DD80917A00882301F3A6
S11307006CE271E082E390E049DDDACFF894FFCF48
S1090710F401F4010101F3
S9030000FC
