S015000042696B654C696768745F365F322E7372656376
S113000010C053C029C028C027C026C025C024C0A2
S113001023C0BFC021C020C005C11EC01DC01CC05C
S11300201BC011241FBECFE5D1E0DEBFCDBF10E061
S1130030A0E6B0E0E8EBF4E002C005900D92A4362F
S1130040B107D9F720E0A4E6B0E001C01D92AB37B8
S1130050B207E1F703D22EC2D3CFD39ADA9AC29A67
S1130060379A17B83F9A86B1836086B9089A8AB3DB
S113007080668ABB8FB582608FBD8EB589618EBD67
S113008088EE93E095BD84BD80B7826080BF83B75E
S1130090826083BF8DE786BF89B7826089BF88B1DC
S11300A08B6488B9DB9A789408951F920F920FB6E7
S11300B00F9211242F933F934F935F936F937F93EA
S11300C08F939F93AF93BF93EF93FF938BB78F7BE4
S11300D08BBF85B78F7D85BFC0DF10B8379A47982F
S11300E0FF91EF91BF91AF919F918F917F916F910C
S11300F05F914F913F912F910F900FBE0F901F90E2
S113010018958BB780648BBF85B7846885BF8B7F58
S113011085BF3798479A1ABA17BA8FEF8BBB88BB3B
S113012080B18F6080B985B7877E806185BF85B7D0
S1130130806285BF8895089520916200213091F4F2
S113014020917500309176006217730728F02FB55F
S11301502F772FBDDD9806C01092620010927600B2
S11301601092750020916200211112C02091750037
S1130170309176008217930720F08FB580688FBD89
S1130180089581E0809362001092760010927500C9
S113019008951F920F920FB60F9211248F939F937D
S11301A0AF93BF938091770090917800A0917900EC
S11301B0B0917A000196A11DB11D809377009093B0
S11301C07800A0937900B0937A00809175009091A3
S11301D07600019690937600809375008091730069
S11301E090917400019690937400809373008091B1
S11301F07100909172000196909372008093710047
S113020080916F009091700001969093700080939C
S11302106F00BF91AF919F918F910F900FBE0F9080
S11302201F9018951F920F920FB60F9211248F935F
S11302301092700010926F008FB580688FBD8F91FF
S11302400F900FBE0F901F901895883E23E09207E1
S113025010F088EE93E09BBD8ABD08950F931F9321
S1130260B29970C080916D00811113C081E08093B8
S11302706D008091770090917800A0917900B09101
S11302807A008093690090936A00A0936B00B09306
S11302906C0080916800811103C081E08093680044
S11302A08091770090917800A0917900B0917A00C4
S11302B04091690050916A0060916B0070916C00EC
S11302C0841B950BA60BB70B883E9340A105B10583
S11302D0C8F180916600909167000196833391057F
S11302E028F490936700809366002CC010926700F6
S11302F010926600809165008111A5C08091600014
S113030090916100883E13E0910730F40196909338
S113031061008093600006C088EE93E090936100D2
S11303208093600080916000909161008EDF0AC02C
S11303300197909361008093600080916000909198
S1130340610083DF80916D00813009F084C0B29B2D
S113035082C040917700509178006091790070914B
S11303607A008091690090916A00A0916B00B0912D
S11303706C00481B590B6A0B7B0B483E53406105CC
S1130380710548F010926D009091650081E0892715
S1130390809365004CC04091770050917800609143
S11303A0790070917A00481B590B6A0B7B0B42331E
S11303B0510561057105D8F140917700509178009D
S11303C06091790070917A008A019B01081B190BD6
S11303D02A0B3B0BD901C801843F9140A105B1050B
S11303E0D8F010926D001092640080916E00882302
S11303F029F08FB58F778FBDDD980BC00FB407FC44
S113040004C08FB580688FBD04C08FB58F778FBD52
S1130410DD9810926E000BC080916800813039F431
S1130420809164008F5F80936400109268008091D3
S11304306400823080F010926D001092640081E0BC
S113044080936E0008C080916000909161000097D5
S113045009F06ECF72CF1F910F910895FEDD8FB515
S113046080688FBD84EF91E0F0DE80916F00909101
S1130470700088399A4390F0DB988FB58F778FBDE1
S1130480DD9880916F00909170008033954738F02B
S11304901092700010926F0034DE01C0DB9ADEDE31
S11304A080916E00882309F36CE271E082E390E0AE
S10B04B043DEDBCFF894FFCF1B
S10704B8F401010046
S9030000FC
