S011000042696B654C696768742E73726563A0
S113000010C052C029C028C027C026C025C024C0A3
S113001023C08EC021C020C0C2C01EC01DC01CC0D1
S11300201BC011241FBECFE5D1E0DEBFCDBF10E061
S1130030A0E6B0E0EAEDF3E002C005900D92A4362C
S1130040B107D9F720E0A4E6B0E001C01D92A737BC
S1130050B207E1F7AED1BFC1D3CFD39ADA9AC29A2D
S1130060379A17B83F9A86B1836086B9089A8AB3DB
S113007080668ABB8FB582608FBD8EB589618EBD67
S113008088EE93E095BD84BD80B7826080BF83B75E
S1130090826083BF8DE786BF89B7826089BF88B1DC
S11300A08B6488B9789408951F920F920FB60F92BB
S11300B011248F938BB78F7B8BBF85B78F7D85BFC3
S11300C010B8379A47988F910F900FBE0F901F90DA
S11300D018959C0190916200913099F4809171007F
S11300E0909172006817790728F08FB58F778FBDCC
S11300F0DD9807C010926200109272001092710095
S113010004C090916200911112C08091710090918D
S113011072002817390720F08FB580688FBD0895C5
S113012081E0809362001092720010927100089531
S11301301F920F920FB60F9211248F939F93AF9338
S1130140BF938091730090917400A0917500B09159
S113015076000196A11DB11D8093730090937400E5
S1130160A0937500B0937600809171009091720015
S11301700196909372008093710080916F0090912A
S1130180700001969093700080936F00BF91AF91BF
S11301909F918F910F900FBE0F901F9018951F92F3
S11301A00F920FB60F9211240F900FBE0F901F9055
S11301B01895883E23E0920710F088EE93E09BBDEB
S11301C08ABD0895B29970C080916D00811113C0E9
S11301D081E080936D008091730090917400A091F0
S11301E07500B09176008093690090936A00A093A3
S11301F06B00B0936C0080916800811103C081E0B2
S1130200809368008091730090917400A0917500B0
S1130210B09176004091690050916A0060916B0042
S113022070916C00841B950BA60BB70B883E934012
S1130230A105B105C8F1809166009091670001960F
S11302408333910528F490936700809366002CC053
S11302501092670010926600809165008111A0C021
S11302608091600090916100883E23E0920730F411
S11302700196909361008093600006C088EE93E03D
S11302809093610080936000809160009091610080
S113029090DF0AC001979093610080936000809181
S11302A060009091610085DF80916D00813009F0DC
S11302B07FC0B29B7DC08091730090917400A09127
S11302C07500B09176004091690050916A00609188
S11302D06B0070916C00841B950BA60BB70B883ECA
S11302E09340A105B10548F010926D00909165000E
S11302F081E089278093650047C0809173009091C5
S11303007400A0917500B0917600841B950BA60B28
S1130310B70BC297A105B105B8F180917300909114
S11303207400A0917500B0917600841B950BA60B08
S1130330B70B843F9140A105B105D8F010926D0030
S11303401092640080916E00882329F08FB58F7716
S11303508FBDDD980BC00FB407FC04C08FB5806857
S11303608FBD04C08FB58F778FBDDD9810926E005E
S11303700BC080916800813039F4809164008F5FF4
S1130380809364001092680080916400823080F051
S113039010926D001092640081E080936E000895C5
S11303A08091600090916100009709F073CF77CF3E
S11303B0089553DE8FB580688FBD84EF91E0F9DE38
S11303C001DF80916E008823D9F36CE271E082E34F
S10D03D090E07FDEF5CFF894FFCF34
S10703DAF401010025
S9030000FC
